:100000000C943C090C9464090C9464090C946409E4
:100010000C9464090C9464090C9464090C946409AC
:100020000C9464090C9464090C9464090C9464099C
:100030000C9464090C9464090C9464090C9464098C
:100040000C9439310C9464090C9407310C94E13010
:100050000C9464090C9464090C9464090C9464096C
:100060000C9464090C946409230046002E000322BA
:1000700002081C39032203101F3B03220203032240
:10008000010103220309032203050322F18C032249
:1000900003040322F1510322F1500322D000032272
:1000A000030C0322030B0322020403220209230090
:1000B00046002E0003220226032202250322022AE2
:1000C000230046002E000322204303222041032266
:1000D00063030322D302032263210322630A032260
:1000E000D041032263090322D032032223090322D1
:1000F00023080322230A032220472E002330004630
:10010000002A20416C6C206D6561737572656D65A8
:100110006E7473206361707475726564202A004484
:1001200043204641554C54004F4B00206B4F686DA7
:100130002C200044432069736F6C6174696F6E20DA
:10014000202020203A20004F4B0052656164792026
:10015000666F72206361702E206D6561732E2021A1
:1001600000207300205B6D6D3A73735D0030003AC0
:10017000003000205B68683A6D6D5D0030003A0029
:1001800030007761697420666F7220004856204FF6
:100190004E2C2063616E2774206D6561732E204F95
:1001A0004356004F4356207374617465202020200D
:1001B000202020203A20006465674300400020731F
:1001C0002C20004F43562074696D6572202020203A
:1001D000202020203A20002A2A2A20446F6E2774EB
:1001E00020747275737420616E64207265646F2070
:1001F0006D6561737572656D656E7421202A2A2A9A
:10020000002C20706F6F7221002A206E65656420BB
:100210003E3E64534F432C207374617274207465A6
:1002200073742062656C6F772032302520534F4302
:10023000202A002C2066616972002C20676F6F6491
:10024000002C207665727920676F6F64002C206522
:100250007863656C6C656E7400457374696D617468
:10026000696F6E20666163746F723A20002A2057AE
:10027000617463682074696D657220666F72204FC7
:1002800043562073746174652C207265646F20740A
:1002900065737421202A0020646179287329206104
:1002A000676F004D6561737572656D656E7420646E
:1002B0006F6E65203A20002041682C2076616C75B5
:1002C0006520403235646567432000424D53206508
:1002D0007374696D61746520202020203A2000200D
:1002E00041682C206D696E2E2043656C6C232000C4
:1002F00043686172676564206361706163697479E2
:10030000203A2000202500534F433A200020252C7E
:1003100020007265616C534F432020202020202054
:100320002020203A20002D2D2D20202020202020AC
:1003300042617474657279205374617475732052CC
:1003400065706F7274202020202020202D2D2D001C
:100350004F4B002A204D6561737572656D656E7433
:10036000206661696C6564202A0052656164696E6B
:10037000672064617461002020616C6C202020473C
:10038000657420636F6D706C657465206461746161
:10039000736574002A204353204D656E753A002022
:1003A000207420202020204765742074656D7065BE
:1003B00072617475726573002020762020202020E1
:1003C00047657420766F6C74616765732C20616D6E
:1003D0007073202620737461747573002020616C23
:1003E0006C20202047657420636F6D706C657465A8
:1003F0002064617461736574002A204F424C204D63
:10040000656E753A002020742020202020476574F6
:100410002074656D7065726174757265730020205B
:1004200076202020202047657420766F6C746167E9
:1004300065732C20616D7073202620737461747550
:1004400073002020616C6C20202047657420636F4E
:100450006D706C6574652064617461736574002AE5
:10046000204E4C4736204D656E753A002020742092
:10047000202020204765742074656D70657261745A
:100480007572657300202076202020202047657437
:1004900020766F6C7461676573002020616C6C203E
:1004A000202047657420636F6D706C6574652064EF
:1004B000617461736574002A20424D53204D656E4E
:1004C000753A00202023202020202053686F7720B9
:1004D0007265616C2074696D6520646174610020CF
:1004E00020202020202020202020202020205B6F82
:1004F0006E2F6F66665D0020206578706572696D8D
:10050000656E74616C20436F6E66696775726520F5
:100510007768657468657220746F20696E636C75A6
:100520006465206578706572696D656E74616C20B4
:1005300064617461002020202020202020202020C1
:10054000202020205B6F6E2F6F66665D0020206983
:100550006E697469616C202020202020436F6E66D4
:10056000696775726520696E697469616C2064756C
:100570006D70206F6E206F72206F66660020207293
:10058000657365742020202020202020526573652B
:100590007420746F20666163746F7279206465667D
:1005A00061756C74732028696E697469616C20646C
:1005B000756D702C206C6F6767696E67206F66665B
:1005C0002900202020202020202020202020202042
:1005D000205B6F6E2F6F66665D206F72205B6F6EA3
:1005E0002F6F66665D205B74696D652F735D0020FB
:1005F000206C6F67202020202020202020204C6F9E
:100600006767696E67002020696E666F2020202072
:10061000202020202053686F77206C6F6767696EF9
:100620006720737461746500202068656C702020F9
:10063000202020202020204C69737420636F6D6D72
:10064000616E6473002020727074202020202020AE
:100650002020202053686F7720626174746572795E
:10066000207265706F7274002020616C6C202020F5
:100670002020202020202052756E20616C6C207478
:10068000657374730020204F424C202020202020CE
:10069000202020205375626D656E750020204E4C21
:1006A00047362020202020202020205375626D65B1
:1006B0006E75002020435320202020202020202061
:1006C00020205375626D656E75002020424D5320C9
:1006D0002020202020202020205375626D656E751B
:1006E000002A204D61696E204D656E753A004F4EAF
:1006F000004F4646004578706572696D656E74619D
:100700006C20646174612069732000496E697469AA
:10071000616C2064756D7020697320004C6F676791
:10072000696E6720697320002073004C6F676769EA
:100730006E6720696E74657276616C3A20004E4C6B
:1007400047363A2000426174746572792056494EEA
:100750003A20002D00206B6D002C2020204F444FAC
:10076000203A200030003A00300054696D65205B6B
:1007700068683A6D6D5D3A20004261747465727903
:100780002056494E3A20002F002F002C2053573A74
:10079000002F002F005265762E5B592F574B2F509C
:1007A0004C5D2048573A002F002F00426174746559
:1007B00072792D46415420646174652020205B5974
:1007C0002F4D2F445D3A20002F002F00426174749A
:1007D0006572792076657269666965642020205BA0
:1007E000592F4D2F445D3A20002F002F0042617495
:1007F000746572792050726F64756374696F6E20CE
:100800005B592F4D2F445D3A2000300031004445A4
:100810004752414445443A20004641554C54004F0C
:100820004B0048562042617474657279205374619C
:100830007475733A20004E6F204C56206865616CC9
:10084000746820696E666F206265636175736520E8
:10085000636172206973204F4E2E00206D696E75A2
:1008600074657300436172206F666620666F723A2A
:1008700020005245434845434B2061667465722011
:10088000636172206F666620666F72203E3630208C
:100890006D696E730043415554494F4E3A204C6F79
:1008A0007720766F6C74616765206261747465721D
:1008B000792076657279206C6F77205B3C2031322D
:1008C0002E3020565D2E20436865636B2077697457
:1008D0006820616E2061637475616C206D6574655C
:1008E000722E00494E464F205B31322E302D313270
:1008F0002E3120565D2E20436F6E73696465722021
:10090000766572696679696E6720776974682061B7
:100910006E2061637475616C206D657465722E0064
:100920004F4B205B31322E322D31322E3320565D2B
:1009300000474F4F44205B3E3D2031322E3420563D
:100940005D002056004C5620203A2000302E3030DA
:10095000206B5700206B570020412C200020562C84
:100960002000485620203A20002025002C207265C7
:10097000616C534F433A2000202500534F43203AE7
:1009800020004E4F54494345202D2063656C6C2058
:10099000646576696174696F6E206F766572203464
:1009A000356D56202D20636F6E7369646572206209
:1009B000616C616E63696E67206368617267650070
:1009C0002073004F435674696D65723A2000206DA4
:1009D00056004356206D617820203A2000206D5645
:1009E000004356206D696E20203A2000206D56008D
:1009F0002C206456203D2000206D56004356206D6B
:100A000065616E203A2000636F6F6C616E74203AEE
:100A100020002C206D6178203A20002C206D696E1A
:100A2000203A20002020206D65616E203A20002CA5
:100A300020003A20006D6F64756C65200054656D70
:100A40007065726174757265732042617474657249
:100A5000792D556E6974202F646567433A20006DC7
:100A600061780020005B7032353B206D6564696100
:100A70006E3B207037355D0020006D696E002000F0
:100A80002000203C20005D003B20003B20005B005C
:100A9000203E2000202020002A002D003C005D0088
:100AA0003D007C003D005B002D003E002A00206DD3
:100AB00056293A00566F6C746167652044697374F7
:100AC0007269627574696F6E202864563D2000203B
:100AD00056004443204C563A200020410020562C1A
:100AE000200044432048563A200020410020562C44
:100AF00020004143204C333A200020410020562C56
:100B000020004143204C323A200020410020562C46
:100B100020004143204C313A2000204100436861CD
:100B20007267696E67706F696E74203A20002041A9
:100B3000004361626C65206D6178696D756D203A66
:100B40002000204100557365722073656C656374E5
:100B50006564203A2000537461747573204F424CD1
:100B600020436861726765722D556E69743A200082
:100B7000537461747573204E4C473620436861721C
:100B80006765722D556E69743A20002C2000496EFD
:100B90007465726E616C2076616C7565733A2000C5
:100BA000496E6C657420736F636B65742020203A06
:100BB0002000436F6F6C696E6720706C61746520F4
:100BC000203A20005265706F7274656420202020E6
:100BD0002020203A200054656D7065726174757232
:100BE000657320436861726765722D556E69742064
:100BF0002F646567433A2000454E54455220636F89
:100C00006D6D616E642E2E2E20283F20666F72203F
:100C100068656C702900204168002041732F3130D5
:100C20002C2000434150206D6178203A2000204163
:100C300068002041732F31302C2000434150206D3B
:100C4000696E203A2000204168002041732F313026
:100C50002C2000434150206D65616E3A20004163B5
:100C60007475616C20657374696D6174696F6E2051
:100C7000202020203A20004D6561737572656D65F6
:100C80006E7420657374696D6174696F6E3A2000CB
:100C900020646179287329004C617374206D65614B
:100CA000737572656D656E742020202020203A20B7
:100CB000004443204641554C54004F4B00206B4F9D
:100CC000686D2C200044432069736F6C6174696FF8
:100CD0006E20203A20006F66206D61782E206379A7
:100CE000636C65733A20004379636C6573206C65AF
:100CF00066742020203A20002073002C20666F723A
:100D00003A20007374617465204F464600207300DA
:100D10002C206C6F772063757272656E743A2000B8
:100D20007374617465204F4E00485620636F6E7473
:100D30006163746F7220002041682C202320002002
:100D400041732F31302C2000434150206D617820B9
:100D50003A20002041682C202320002041732F31AD
:100D6000302C2000434150206D696E203A20002035
:100D70004168002041732F31302C20004341502026
:100D80006D65616E3A2000206D562C2023200043B3
:100D900056206D617820203A2000206D562C2023AB
:100DA00020004356206D696E20203A2000206D56A9
:100DB000002C20733D2000206D56002C2064563DF1
:100DC0002000206D56004356206D65616E203A204C
:100DD00000496E646976696475616C2043656C6C6A
:100DE00020537461746973746963733A003B003B08
:100DF00000300023203B6D5620203B41732F3130C3
:100E000000300030003000556E6B6E6F776E2063DF
:100E10006F756E7465723A20307800202500416746
:100E2000696E672D4C6F73733A2000204168004D46
:100E30006178696D756D2063617061636974792093
:100E4000403435433A20002A2A2A204578706572BA
:100E5000696D656E74616C2044617461202D204E53
:100E60004F54205645524946494544202A2A2A00D3
:100E70004F4B002A204D6561737572656D656E7408
:100E8000206661696C6564202A0052656164696E40
:100E9000672064617461002C20000322F121535704
:100EA000207265763A2000485720504E203A2000A4
:100EB0004F4B002A204D6561737572656D656E74C8
:100EC000206661696C6564202A0052656164696E00
:100ED00067206461746100206D62617200206D6240
:100EE00061722C2000507265737375726520312C0D
:100EF0002032203A200020680056616363756D201F
:100F000070756D702020203A20004F4E004F4646ED
:100F10000020682C20004261747465727920686535
:100F2000617465723A2000206800436F6F6C696ECF
:100F3000672070756D7020203A2000206800436F94
:100F40006F6C696E672066616E2020203A20004F2A
:100F500054523A0020410020562C2000202020200E
:100F6000202020202020202020203A2000206465FE
:100F700067430020252C2000436F6F6C696E67204B
:100F800070756D7020203A2000202500436F6F6C33
:100F9000696E672066616E2020203A20002064651B
:100FA00067430054656D70657261747572652020C9
:100FB000203A200053746174757320436F6F6C691D
:100FC0006E672D20616E642053756273797374654A
:100FD0006D733A20004F4B002A204D656173757286
:100FE000656D656E74206661696C6564202A0052C7
:100FF000656164696E6720646174610000000000CF
:10100000250028002B0000000000240027002A00F3
:10101000434F4E4E4543544544002E00436F6E6E81
:1010200065637420746F204F424420706F72742087
:101030002D2057616974696E6720666F7220434185
:101040004E2D42757320002D2D2D00202834353172
:101050002920002D2D2D2076002D2D2D20454420DA
:1010600042617474657279204D616E6167656D656A
:101070006E7420446961676E6F7374696373202DA9
:101080002D2D000322F1114E4C4736206465746506
:1010900063746564000322F190434D44203E3E009A
:1010A000434D443A206E6F74207265636F676E69BA
:1010B0007A656400446176652C20746869732063E6
:1010C0006F6E766572736174696F6E2063616E20F6
:1010D0007365727665206E6F20707572706F7365C0
:1010E00020616E79206D6F72652E20476F6F64628C
:1010F00079652E0054686973206D697373696F6E2A
:1011000020697320746F6F20696D706F7274616EE7
:101110007420666F72206D6520746F20616C6C6F37
:101120007720796F7520746F206A656F70617264C3
:10113000697A652069742E0049276D20736F727279
:10114000792C20446176652E2049276D20616672D6
:1011500061696420492063616E277420646F207484
:101160006861742E003B003B003B003B003B003BB2
:10117000003B003B003B003B003B003B003B003B97
:10118000003B003B003B003B003B00302E3030007A
:101190003B003B003B003B00534F433B72534F43EC
:1011A0003B413B6B573B563B56632C6D696E3B5640
:1011B000632C6D61783B52693B54622F433B4C3149
:1011C0002F563B4C312F413B4C322F563B4C322F4C
:1011D000413B4C332F563B4C332F413B48562F5607
:1011E0003B48562F413B54722F433B54706C2F4366
:1011F0003B54692F433B54632F433B502F253B54B3
:10120000702F430053657474696E67206661637460
:101210006F72792064656661756C747300032202D5
:10122000230322020703220202032202010000001C
:10123000002300260029000404040404040404021A
:101240000202020202030303030303010204081063
:101250002040800102040810200102040810200030
:101260000000080002010000030407000000000065
:10127000000000008331D03711241FBECFEFD8E02B
:10128000DEBFCDBF11E0A0E0B1E0E6E4FCE702C0C4
:1012900005900D92A03EB107D9F724E0A0EEB1E091
:1012A00001C01D92A335B207E1F719E0CBE3D9E005
:1012B00004C02197FE010E94003ECA33D107C9F73E
:1012C0000E9432320C94163E0C940000FB01E40F95
:1012D000F51F20813181232732272327FC01318309
:1012E00020830895E091FC03F091FD039C01220FFF
:1012F000331FE20FF31F20813181009749F080FDF9
:1013000007C082819381820F931F969587950895D8
:10131000C9010895AF92BF92CF92DF92EF92FF92F0
:101320000F931F93CF93DF936C017B018B01040F0D
:10133000151FEB015E01AE18BF08C017D10759F0A9
:101340006991D601ED91FC910190F081E02DC601EB
:101350000995892B79F7C501DF91CF911F910F91E5
:10136000FF90EF90DF90CF90BF90AF900895FC0179
:10137000538D448D252F30E0842F90E0821B930BFA
:10138000541710F0CF96089501970895FC01918DA0
:10139000828D981761F0A28DAE0FBF2FB11D5D96A3
:1013A0008C91928D9F5F9F73928F90E008958FEF45
:1013B0009FEF0895FC01918D828D981731F0828DF9
:1013C000E80FF11D858D90E008958FEF9FEF089550
:1013D000FC01918D228D892F90E0805C9F4F821BB4
:1013E00091098F739927089582E392E00E94E8099A
:1013F00021E0892B09F420E0822F089580E090E01D
:10140000892B29F00E94F40981110C9400000895A1
:10141000FC01A48DA80FB92FB11DA35ABF4F2C9169
:10142000848D90E001968F739927848FA689B78960
:101430002C93A089B1898C91837080648C93938D57
:10144000848D981306C00288F389E02D80818F7DFA
:1014500080830895EF92FF920F931F93CF93DF93B2
:10146000EC0181E0888F9B8D8C8D98131AC0E889E0
:10147000F989808185FF15C09FB7F894EE89FF89AF
:101480006083E889F98980818370806480839FBF4D
:1014900081E090E0DF91CF911F910F91FF90EF904D
:1014A0000895F62E0B8D10E00F5F1F4F0F7311275D
:1014B000E02E8C8D8E110CC00FB607FCFACFE88998
:1014C000F989808185FFF5CFCE010E94080AF1CF0E
:1014D000EB8DEC0FFD2FF11DE35AFF4FF0829FB70C
:1014E000F8940B8FEA89FB8980818062CFCF0F93BC
:1014F0001F93CF93DF938C01D0E0C0E0F801EC0F95
:10150000FD1F6491662341F082E392E00E942A0A63
:10151000892B11F02196F2CFCE01DF91CF911F914F
:101520000F910895682F82E392E00C942A0ACF93DA
:10153000DF93EC01888D8823B9F0AA89BB89E889FB
:10154000F9898C9185FD03C0808186FD0DC00FB6A1
:1015500007FCF7CF8C9185FFF2CF808185FFEDCF1F
:10156000CE010E94080AE9CFDF91CF910895833020
:1015700081F028F4813099F08230A9F00895873005
:10158000A9F08830C9F08430B1F4809180008F7D5B
:1015900003C0809180008F7780938000089584B588
:1015A0008F7784BD089584B58F7DFBCF8091B00087
:1015B0008F778093B00008958091B0008F7DF9CF30
:1015C000CF93DF93E1E6F2E18491EDE4F2E1D4918F
:1015D000E9E3F2E1C491CC23A1F081110E94B70AA2
:1015E000EC2FF0E0EE0FFF1FE35DFD4EA591B491EF
:1015F000EC91ED2381E090E009F480E0DF91CF9160
:10160000089580E090E0FACF1F93CF93DF93282FC7
:1016100030E0F901E15AFD4E8491F901E55BFD4EA0
:10162000D491F901E95CFD4EC491CC23A9F0162FA9
:1016300081110E94B70AEC2FF0E0EE0FFF1FE4507B
:10164000F04FA591B4918FB7F894EC91111108C0A7
:10165000D095DE23DC938FBFDF91CF911F9108954A
:10166000DE2BF8CFCF93DF9390E0FC01E55BFD4EDE
:101670002491895C9D4EFC0184918823D1F090E0F7
:10168000880F991FFC01EA5FFF4EA591B491FC0100
:10169000E450F04FC591D49161110EC09FB7F894FA
:1016A0008C91E22FE0958E238C932881E223E883AE
:1016B0009FBFDF91CF9108958FB7F894EC91E22B03
:1016C000EC938FBFF6CF3FB7F8948091E7019091EC
:1016D000E801A091E901B091EA0126B5A89B05C0F7
:1016E0002F3F19F00196A11DB11D3FBFBA2FA92FA1
:1016F000982F8827BC01CD01620F711D811D911D9E
:1017000042E0660F771F881F991F4A95D1F7089509
:101710008F929F92AF92BF92CF92DF92EF92FF9201
:101720004B015C010E94630B6B017C010E94630B07
:101730006C197D098E099F09683E734081059105EA
:10174000A8F321E0821A9108A108B10888EEC80E1A
:1017500083E0D81EE11CF11C81149104A104B104A2
:1017600029F7FF90EF90DF90CF90BF90AF909F90C0
:101770008F900895FC0127812617170659F050F025
:10178000660F771F80819181680F791FFB0180812F
:101790009181089590E080E008956F927F928F92FA
:1017A0009F92AF92BF92CF92DF92EF92FF920F93F0
:1017B0001F93CF93DF93A0900304CA2CD12C809168
:1017C000040490E09090FC03B090FD0330E020E032
:1017D0008C010150110928173907ECF4E92DFB2D74
:1017E00050E040E0401751079CF461917191A08155
:1017F000B181A617B70748F47F01C2E0EC1AF108DF
:10180000E701B983A883718360834F5F5F4FEACF9D
:101810002F5F3F4FE0CF8A2D8695869590E00E94FE
:1018200072097C0190934503809344038A2D869529
:1018300090E00E94720990934B0380934A0383E0E7
:10184000A89EE0011124D595C795D595C795CE01E1
:101850000E9472098C0190934D0380934C03BC014C
:101860006E197F0990E080E00E943A3C20E030E071
:1018700040EC5FE30E94F13C0E940B3C4B0156019F
:10188000B594A794B594A79466246394712CE81832
:10189000F908662D70E06A157B0554F48CEF93E02F
:1018A0000E94BA0B8E159F0508F473946394F1CFD0
:1018B000D0E081E0C81AD108080D191D6C2F70E026
:1018C0006C157D0554F48CEF93E00E94BA0B081759
:1018D000190708F4DF5FCF5FF1CF70924303D09315
:1018E0004E0381E0DF91CF911F910F91FF90EF9018
:1018F000DF90CF90BF90AF909F908F907F906F9030
:101900000895BF92CF92DF92EF92FF920F931F93B1
:10191000CF93DF936115710519F0FB0111821082DD
:10192000FC01B78010E000E0BB20E9F0EB016C01A6
:1019300070E060E00E94BA0B8C01F12CE12CEB14FA
:1019400090F4B701C6010E94BA0B0817190748F4B2
:10195000209711F0F982E882FFEFEF1AFF0A8C015D
:10196000EECFC801F9CFC801DF91CF911F910F9140
:10197000FF90EF90DF90CF90BF900895BF92CF92ED
:10198000DF92EF92FF920F931F93CF93DF93611536
:10199000710519F0FB0111821082FC01B78010E083
:1019A00000E0BB20E9F0EB016C0170E060E00E9418
:1019B000BA0B8C01F12CE12CEB1490F4B701C601A9
:1019C0000E94BA0B8017910748F4209711F0F98212
:1019D000E882FFEFEF1AFF0A8C01EECFC801F9CFC2
:1019E000C801DF91CF911F910F91FF90EF90DF9091
:1019F000CF90BF9008950F931F93CF93FC019B014D
:101A00009781C0858681A82FB0E0AA0FBB1F4081B7
:101A10005181A40FB51F9C17C0F49F5F97832D932E
:101A20003C934281538164817581420F531F611D34
:101A3000711D42835383648375838F5F8C17A8F471
:101A40008683CF911F910F9108950D911C9111974D
:101A50004281538164817581401B510B6109710979
:101A60004283538364837583DACF1682EACF2FB71C
:101A7000F8944091CF025091D0026091D1027091C0
:101A8000D2022FBFFC014083518362837383089588
:101A90000F931F93CF93C62FFC014481558166811C
:101AA00077814F3F5F4F6F4F7F4F31F4C0E08C2FF6
:101AB000CF911F910F9108952FB7F8944091CF02C5
:101AC0005091D0026091D1027091D2022FBF409309
:101AD000E2015093E3016093E4017093E5014091CA
:101AE000E2015091E3016091E4017091E501FC0194
:101AF0000081118122813381401B510B620B730BDA
:101B000004811581268137814017510762077307C9
:101B100068F2CC2319F00E94370DC9CFC1E0C7CFBE
:101B20008EBD00000DB407FEFDCF8EB50895FF9267
:101B30000F931F93CF93DF93EC01F62E042F122FF8
:101B400060E088890E94040B85E00E94900D8F2D33
:101B50000E94900D802F0E94900D812F0E94900D69
:101B600061E088890E94040B83EE93E00197F1F70E
:101B7000DF91CF911F910F91FF900895DF92EF9227
:101B8000FF920F931F93CF93DF937C01C62FD42E28
:101B9000152F022F60E0FC0180890E94040B82E077
:101BA0000E94900D8C2F0E94900DCD2DD12F0C0FE7
:101BB0001D2F111DC017D10721F089910E94900D92
:101BC000F9CF61E0F70180890E94040B83EE93E076
:101BD0000197F1F7DF91CF911F910F91FF90EF9057
:101BE000DF9008950F931F93CF93DF9300D000D021
:101BF000CDB7DEB78901222733271C821B824130F3
:101C0000F9F4402F440F440F440F407E502F53707F
:101C10005860452B4A8335E0169507953A95E1F7CC
:101C2000098324E0AE014F5F5F4F0E94BE0D0F900D
:101C30000F900F900F90DF91CF911F910F9108950A
:101C4000402F4295440F407E4A8323E01695079526
:101C50002A95E1F7E5CF0F931F93CF93DF93EC0124
:101C6000062F142F60E088890E94040B82E00E94F6
:101C7000900D802F0E94900D812F0E94900D61E0A9
:101C800088890E94040B83EE93E00197F1F7DF91BE
:101C9000CF911F910F910895DF92EF92FF920F93D2
:101CA0001F93CF93DF937C01C62FD42E152F022FC5
:101CB00060E0FC0180890E94040B83E00E94900D8B
:101CC0008C2F0E94900DCD2DD12F0C0F1D2F111D8B
:101CD000C017D10729F080E00E94900D8993F8CFBA
:101CE00061E0F7018089DF91CF911F910F91FF9003
:101CF000EF90DF900C94040B1F93CF93DF93EC01D4
:101D0000162F60E088890E94040B83E00E94900DEA
:101D1000812F0E94900D80E00E94900D182F61E0AD
:101D200088890E94040B812FDF91CF911F91089524
:101D30002F923F924F926F927F928F929F92AF928B
:101D4000BF92DF92EF92FF920F931F93CF93DF9397
:101D500000D000D0CDB7DEB78C01B12CA12C2090E3
:101D6000100130901101409012014E0184E0880E64
:101D7000911C29823A824B82FE0131963F01DE2E70
:101D8000E72CF301F1903F016F2DC8010E947C0EFA
:101D900083FD0DC0F39480E0FFEFAF1ABF0A8230DD
:101DA00061F482E3A816B10421F796E072C06814CA
:101DB000790439F7F12C82E0EFCF92E3A916B10450
:101DC000A1F3F8012581A8014A5F5F4F65E06F0D1F
:101DD000C8010E94BE0DF8018685813019F4858105
:101DE00080648583F801458164E06F0DC8010E941D
:101DF0002B0EF80181819281A381B4812081213051
:101E0000B1F58C839B83CD01AA27BB27282F237094
:101E10002860382F330F330F330F307E232B2A8364
:101E200035E0969587953A95E1F7898324E04D2D25
:101E30005E2D6F2DC8010E94BE0DFA9428E048E087
:101E40006F2DC8010E94970DB12CA12CFFEFAF1A86
:101E5000BF0A6F2DC8010E947C0E982F987083FFD7
:101E600014C082E3A816B10489F797E012C09C0160
:101E700093E0369527959A95E1F729838295880F07
:101E8000807E8A831C821B82D1CFE2E3AE16B1042E
:101E900061F3892F0F900F900F900F90DF91CF91EA
:101EA0001F910F91FF90EF90DF90BF90AF909F90A8
:101EB0008F907F906F904F903F902F900895EF926A
:101EC000FF920F931F93CF93DF9300D000D0CDB735
:101ED000DEB78C01F62EFC01108211821282138271
:101EE000148224E0AE014F5F5F4F0E944C0E2A81A6
:101EF0008981F8E08F9FC0011124422F50E065E0F6
:101F0000559547956A95E1F7840F951F092E000CAA
:101F1000AA0BBB0BF80181839283A383B48323FFB5
:101F200024C032E0880F991FAA1FBB1F3A95D1F732
:101F30002370820F911DA11DB11DBA2FA92F982FBB
:101F400088272B81820F911DA11DB11DBA2FA92FAA
:101F5000982F88272C81820F911DA11DB11D81838F
:101F60009283A383B48381E080836FEF6F0DC801F8
:101F70000E947C0EE82E64E06F0DC8010E947C0E6A
:101F8000F8018583E3FE19C091E09687282F2F7012
:101F9000F8012583A8014A5F5F4F65E06F0DC80116
:101FA0000E944C0E0F900F900F900F90DF91CF91E9
:101FB0001F910F91FF90EF9008951686E7CFAF9293
:101FC000BF92CF92DF92FF920F931F93CF93DF9335
:101FD000EC015B016A01890160E088890E94040BC1
:101FE00080EA0E94900D80E00E94900DF82E61E042
:101FF00088890E94040BF0FE24C061E6CE010E9495
:102000005F0F20E041E06CE2CE010E94970D8981D4
:102010009A81AB81BC81F50180839183A283B383D4
:102020008D81F6018083DE011696F8012D81CF01A6
:10203000801B910B2817190669F064F08D9181932C
:10204000F5CFF1FEE4CF61E7CE010E945F0F20E003
:1020500042E0D9CFDF91CF911F910F91FF90DF9098
:10206000CF90BF90AF9008950E94E00A892BD1F4E1
:1020700024E134E042E154E06EE074E08091F60344
:102080009091F7030E94DF0F24E134E042E154E035
:102090006EE074E08091F6039091F7030E94DF0FE9
:1020A00081E0089580E008950F931F93CF938C01F2
:1020B000C62F262F40EE6FE00E94970D6FE0C801FB
:1020C0000E947C0E982F907E81E09C1301C080E0DE
:1020D000CF911F910F910895CF92DF92EF92FF92CF
:1020E0000F931F93CF93DF93EC01162F69017A01B1
:1020F00060E80E945410811137C0133059F1B8F4D0
:102100001130F1F0123009F19701860140E060E0F2
:10211000CE010E94F20D6989CE01DF91CF911F910E
:102120000F91FF90EF90DF90CF900C9454101430EB
:10213000B1F0153049F79701860140E068E1E8CF3A
:102140009701860140E064E0E3CF9701860140E01B
:1021500068E0DECF9701860140E060E1D9CF9701CA
:10216000860140E064E1D4CFDF91CF911F910F91C0
:10217000FF90EF90DF90CF900895CF92DF92EF9293
:10218000FF920F931F93CF93DF93EC01162F6901FA
:102190007A0160E80E945410811119C09701111151
:1021A00012C0860140E060E2CE010E94F20D698912
:1021B000CE01DF91CF911F910F91FF90EF90DF90B3
:1021C000CF900C945410860140E064E2EDCFDF9193
:1021D000CF911F910F91FF90EF90DF90CF900895D6
:1021E000CF92DF92EF92FF92CF93DF93C6EFD3E0CF
:1021F0006AAF7BAF8CAF9DAF7B01DD24CC2420E0A8
:1022000030E04FEF57E060E0888199810E94BD1077
:1022100020E030E04FEF57E061E0888199810E9433
:10222000BD10A701960160E0888199810E946C1021
:10223000A701960161E0888199810E946C10A70135
:10224000960162E0888199810E946C10A701960135
:1022500063E0888199810E946C10A701960164E077
:10226000888199810E946C10A701960165E08881A0
:1022700099810E946C1088819981FC01118A60E02B
:10228000DF91CF91FF90EF90DF90CF900C9454109E
:10229000CF92DF92EF92FF9269017A0160932C0452
:1022A00070932D0480932E0490932F04809130041A
:1022B00090913104A0913204B09133048C159D05A6
:1022C000AE05BF0521F0CA01B9010E94F010C0920D
:1022D0003004D0923104E0923204F0923304FF9043
:1022E000EF90DF90CF900895CF93DF93C6EFD3E0C8
:1022F00020E030E0A90160E0888199810E94BD1052
:1023000020E030E0A90161E0888199810E94BD1040
:1023100088819981FC01118A60E0DF91CF910C9452
:1023200054108F929F92AF92BF92CF92DF92EF9212
:10233000FF920F931F93CF93DF930E94F010809131
:10234000F8039091F9030E94370DD12CC12CE12C98
:10235000F12C00E010E0D0E00E94E00AC0E0892B00
:1023600009F0DEC024E134E042E154E06EE074E0C4
:102370008091F6039091F7030E94DF0F80900E0486
:1023800090900F04A0901004B090110488E188167A
:1023900085E09806A104B104C9F560911B0470E0C2
:1023A00090E080E00E943A3C20E030E040E05FE3D3
:1023B0000E94F13C6093890370938A0380938B039E
:1023C00090938C03D1E0C1E082E1881684E0980606
:1023D000A104B10409F06EC0209116048091170485
:1023E00090E0B0E0A0E0BA2FA92F982F8827A22B69
:1023F00020911804822B8093A3039093A403A093AD
:10240000A503B093A603CC24C39489C085ED881698
:1024100082E09806A104B10471F4809118049091AF
:102420001904982789279827937090938F03809396
:102430008E0311E0C8CF88E0881685E09806A104D5
:10244000B10409F049C06091160470911704762711
:10245000672776277F737052072E000C880B990B25
:102460000E943C3C20E030E040E251E40E94923B7C
:1024700060939203709393038093940390939503D6
:1024800020919A0330919B0340919C0350919D03AE
:102490000E94F13C20E030E04AE754E40E94923B85
:1024A0006093960370939703809398039093990396
:1024B00001E0C1E082E1881685E09806A104B1043C
:1024C00079F580911404809387038091150480939B
:1024D0008803DD24D39423C088E4881684E098061A
:1024E000A104B10409F03FC060911A0470911B046B
:1024F00076276727762790E080E00E943A3C20E02C
:1025000030E040E251E40E94923B60939A03709362
:102510009B0380939C0390939D03FF24F394C1E05D
:102520008D2F810F800F8F0D8E0D8C0D8D0DC11194
:102530003BC0873051F060E08091F8039091F9033F
:102540000E94480D882309F407CF8C2FDF91CF918B
:102550001F910F91FF90EF90DF90CF90BF90AF90C1
:102560009F908F90089585ED881683E09806A104CA
:10257000B104C1F46091170470E090E080E00E9423
:102580003A3C20E030E040E251E40E94923B60930C
:102590009E0370939F038093A0039093A103EE2466
:1025A000E394BDCFC0E010CFC1E0CFCFFC010190DC
:1025B0000020E9F73197AF01481B590BBC0182E3BA
:1025C00092E00C948A0980E591E00C94D612CF93A6
:1025D000DF930E94770AEC010E94E3128C0F9D1F8B
:1025E000DF91CF910895882321F08EEE96E00C9430
:1025F000E71281EF96E0FBCF8091010190910201FB
:102600008230910509F469C030F4009761F00197B8
:1026100009F454C008958330910509F46DC00497FE
:1026200009F479C0089581EE96E00E94E7128AECE1
:1026300096E00E94E71283EB96E00E94E7128091F9
:10264000EB028823C1F18CE996E00E94E71288E64C
:1026500096E00E94E71285E496E00E94E7120E944D
:10266000E31288E296E00E94E71286E096E00E947C
:10267000E7128FEE95E00E94E71282EC95E00E944F
:10268000E7128DE795E00E94E7128DE495E00E9445
:10269000E71285E395E00E94E71287EF94E00E943D
:1026A000E7128FED94E00E94E7120E94E31283ECA0
:1026B00094E00C94E71285E896E0C7CF87EB94E0AE
:1026C0000E94E7128AE994E00E94E71285E894E00C
:1026D0000E94E7128CE694E0ECCF8FE594E00E9434
:1026E000E71282E494E00E94E7128EE194E00E94F7
:1026F000E71285E094E0DDCF89EF93E00E94E712D6
:102700008CED93E00E94E71288EB93E00E94E712C1
:102710008FE993E0CECF84E993E00E94E71287E748
:1027200093E0C7CFCF93C9E283E597E00E94770A91
:10273000C150D1F7CF910C94E3128F929F92AF9238
:10274000BF920F931F93CF93DF93CDB7DEB7A197BF
:102750000FB6F894DEBF0FBECDBF19A2423008F409
:102760004AE08E010F5D1F4F842E912CB12CA12CBD
:10277000A50194010E948E3AE62FB901CA01EA3000
:10278000F4F4E05DD801EE938D01232B242B252B4F
:1027900079F790E080E0109719F0CD010E94D612F1
:1027A000A1960FB6F894DEBF0FBECDBFDF91CF91DB
:1027B0001F910F91BF90AF909F908F900895E95C0B
:1027C000E1CF462F682F70E090E080E00C949D13DD
:1027D000CF93DF930E94E113EC010E94E3128C0F70
:1027E0009D1FDF91CF910895FF920F931F93CF9379
:1027F000DF93D62FF82E8C01C0E0F80181918F0174
:10280000843099F1C8F4882319F1813049F180911D
:102810000501811107C0CC2309F465C08CE690E066
:102820000E94770A802F8F198D1738F3DF91CF918F
:102830001F910F91FF900895863009F44FC008F45E
:1028400048C0873021F762E175E080E090E004C085
:1028500068E175E080E090E00E949111C82FD7CF29
:1028600065ED72E080E090E0F7CF68E474E080E02E
:1028700090E00E949111811102C0C0E0C8CF68E0D1
:1028800075E080E090E00E949111C82F8823A9F3A1
:1028900020919203309193034091940350919503BA
:1028A00060919A0370919B0380919C0390919D038A
:1028B0000E94F13C20E030E04AE754E40E94923B61
:1028C0006093960370939703809398039093990372
:1028D0009ECF65ED73E080E090E0BECF62E174E0F2
:1028E00080E090E0B9CF8AE690E00E94770A88E61F
:1028F00090E00E94770A6AE070E0F80131978081E9
:102900000E94E1138FCFBC0190E080E04AE00C947C
:102910009D132F923F924F925F926F927F928F9270
:102920009F92AF92BF92CF92DF92EF92FF920F935E
:102930001F93CF93DF93CDB7DEB72A970FB6F894E6
:10294000DEBF0FBECDBF8091270390912803209159
:10295000410330914203281B390B3A872987209085
:102960004F0330905003281A390A209144033091C4
:102970004503A901481B590B5A83498340914A03D7
:1029800050914B03BA01681B790B7D836C83609176
:102990004C0370914D038B01081B190B621B730BC9
:1029A00090E080E00E943A3C20E030E040EC5FE3C1
:1029B0000E94F13C0E940B3C6B0189859A852C0199
:1029C000712C612C4101B12CA12C84189508A6080A
:1029D000B70869817A819B0150E040E024193509EC
:1029E00046095709A8E2B0E00E94CF3AA501940138
:1029F0000E94B03A2E838C819D819C0150E040E082
:102A00002419350946095709A8E2B0E00E94CF3AD7
:102A1000A50194010E94B03A2B83980150E040E058
:102A20002419350946095709A8E2B0E00E94CF3AB7
:102A3000A50194010E94B03A2F8329813A812C1973
:102A40003D0950E040E02419350946095709A8E23C
:102A5000B0E00E94CF3AA50194010E94B03A2887C5
:102A6000C00ED11EF12CE12CA701960124193509C5
:102A700046095709A8E2B0E00E94CF3AA5019401A7
:102A80000E94B03AE22E84EB9AE00E94770AC101DC
:102A900029853A85821B930B0E9483148EEA9AE063
:102AA0000E94E7128CEA9AE00E94770AFF24F394CE
:102AB0003E81F31608F09DC048858AEA9AE04F15DA
:102AC00011F088EA9AE00E94770AF39438E2F31250
:102AD000EFCF88E99AE00E94E71289859A850E94E3
:102AE000831484E99AE00E94770A809143038A3034
:102AF00018F480E30E94920A6AE070E08091430338
:102B00000E94E11380E99AE00E94770A8EE89AE039
:102B10000E94770A89819A810E9483148BE89AE047
:102B20000E94770A8C819D810E94831488E89AE034
:102B30000E94770AC8010E94831486E89AE00E94E6
:102B4000770A82E89AE00E94770A80914E038A30E1
:102B500018F480E30E94920A6AE070E080914E03CC
:102B60000E94E11380E89AE00E94770A8EE79AE0DB
:102B70000E94770AC1010E9483140E94E3128AE72F
:102B80009AE00E94770A49E0498388E79AE00E9428
:102B9000770A5981515059835111F7CF85E69AE050
:102BA0000E94770A68E0698383E69AE00E94770AC8
:102BB0007981715079837111F7CF8FE59AE02A9668
:102BC0000FB6F894DEBF0FBECDBFDF91CF911F913E
:102BD0000F91FF90EF90DF90CF90BF90AF909F90BC
:102BE0008F907F906F905F904F903F902F900C94BC
:102BF000E7125E8186EA9AE05F1509F464CF6B8183
:102C000084EA9AE0F61608F45ECF7B8182EA9AE0C5
:102C10007F1509F458CF8B818F1530F49F81F916F9
:102C200018F480EA9AE04FCF2F818EE99AE02F15B1
:102C300009F449CF8CE99AE0EF1409F444CF8AE90A
:102C40009AE041CF8CEF99E00E94770A80911E03B1
:102C500090911F030E94831488EF99E00E94770AE5
:102C600080EF99E00E94770A8091250390912603D6
:102C70002091190330911A03821B930B0E94831435
:102C80008CEE99E00E94E71281EE99E00E94770AAB
:102C90008091190390911A030E9483148DED99E09D
:102CA0000E94E71282ED99E00E94770A8091250345
:102CB000909126030E9483148EEC99E00E94E71203
:102CC00083EC99E00E94770A8091790390917A03CE
:102CD0000E94831480EC99E00E94E7128091250302
:102CE000909126032091190330911A03821B930BB4
:102CF0008D9720F082E899E00C94E7120895CF9226
:102D0000DF92EF92FF92CF93DF936B017C01F7FE8E
:102D10001BC08DE20E94920AEC0166277727CB0147
:102D20006C197D098E099F094AE00E949D13C80F06
:102D3000D91F0E94E3128C0F9D1FDF91CF91FF904E
:102D4000EF90DF90CF9008954AE00E949D13EC0130
:102D5000F0CFCF92DF92EF92FF92CF93DF936C018F
:102D6000990FEE08FF08F7FE17C08DE20E94920A45
:102D7000EC0166277727CB016C197D098E099F0925
:102D80004AE00E949D138C0F9D1FDF91CF91FF9011
:102D9000EF90DF90CF9008954AE0C701B601DF9130
:102DA000CF91FF90EF90DF90CF900C949D13CF9335
:102DB000DF930E94A916EC010E94E3128C0F9D1F65
:102DC000DF91CF910895CF93DF930E94D612EC014B
:102DD0000E94E3128C0F9D1FDF91CF910895CF9336
:102DE000DF9385E497E00E94770A81ED93E00E94EB
:102DF000E3168EE397E00E94770A8091EB0290E061
:102E00000E94D7168BE297E00E94770AC1E0D1E0DA
:102E10008A819B810E94831488E297E00E94E712D6
:102E20008CE197E00E94770A8C810E94F3128BE07C
:102E300097E00E94770A8F810E94F31285EF96E057
:102E40000E94770A8885DF91CF910C94F3120F933B
:102E50001F93CF9386ED9BE00E94E71284EC9BE0EA
:102E60000E94770A80910A038F3FE1F18852990B03
:102E70000E94D71682EB9BE00E94770A80910C0398
:102E80008F3FA9F18852990B0E94D71680EA9BE0E8
:102E90000E94770A80910B038F3F71F18852990B42
:102EA0000E94D7168091EB02882359F18EE89BE0AF
:102EB0000E94E71202E013E0C0E0F80181918F0167
:102EC0008852990B0E94A916C73021F08BE89BE02D
:102ED0000E94770ACF5FC83081F7CF911F910F9181
:102EE0000C94E31283E591E00E94E316C3CF83E5DF
:102EF00091E00E94E316CACF83E591E00E94E316B9
:102F0000D1CFCF911F910F9108950F931F93CF931E
:102F1000DF93082F82E298E00E94770A80918D0368
:102F20008F3F09F04BC08FE198E00E94E7120E94AA
:102F3000E3128DEE97E00E94770A8091800390E083
:102F40008053984F0E94A9168BEE97E00E94770A53
:102F50006AE070E080917F030E94E11389EE97E0C0
:102F60000E94770A6AE070E080917E030E94E81375
:102F7000002309F442C08CEC97E00E94770A80910C
:102F80007D0390E08053984F0E94A9168AEC97E049
:102F90000E94770A6AE070E080917C030E94E1134E
:102FA00088EC97E00E94770A6AE070E080917B03EA
:102FB000DF91CF911F910F910C94E813811103C001
:102FC00089E198E0B2CF8EE098E00E94770AC8E0ED
:102FD000D0E010E880918D03812361F08CE098E0CF
:102FE0000E94770A16952197A9F782E591E00E9441
:102FF000E3169DCF8AE098E0F3CF8BEA97E00E943A
:10300000770A80917D0390E08053984F0E94A91623
:1030100089EA97E00E94770A6AE070E080917C0379
:103020000E94E11387EA97E00E94770A6AE070E065
:1030300080917B030E94E81385E997E00E94770A5C
:103040008091840390E08053984F0E94A91683E9F1
:1030500097E00E94770A6AE070E0809185030E9401
:10306000E11381E997E00E94770A6AE070E08091BD
:1030700086030E94E1138BE897E00E94770A809113
:10308000810390E08053984F0E94A91689E897E049
:103090000E94770A6AE070E0809182030E94E11347
:1030A00087E897E00E94770A6AE070E080918303E6
:1030B0007FCF89E797E00E94770A81ED93E00E9435
:1030C000E3168AE697E00E94770A809187038A30A8
:1030D00020F488E697E00E94770A6AE070E0809129
:1030E00087030E94E11386E697E00E94770A8091A9
:1030F00088038A3020F484E697E00E94770A6AE029
:1031000070E0809188030E94E11389E597E00E94B6
:10311000770A6091A3037091A4038091A503909115
:10312000A6034AE00E949D1385E597E00C94E71200
:103130004F925F926F927F928F929F92AF92BF92C7
:10314000CF92DF92EF92FF920F931F93CF936B0179
:103150007C01742EAC019B010E94A43D882399F050
:1031600086E591E0CF911F910F91FF90EF90DF9056
:10317000CF90BF90AF909F908F907F906F905F9017
:103180004F900C94D61246015701E894B7F82FEFF0
:103190003FEF4FE75FE7C501B4010E94A43D8111F5
:1031A0000DC02FEF3FEF4FE75FE7C501B4010E946D
:1031B0008D3B18161CF48AE591E0D4CF2FEF3FEF3A
:1031C0004FE75FE4C701B6010E94EC3C18161CF4FF
:1031D0008EE591E0C7CF2FEF3FEF4FE75FECC701E0
:1031E000B6010E948D3B87FDF3CF20E030E0A901BE
:1031F000C701B6010E948D3B10E000E087FF08C0C8
:103200008DE20E94920A8C01F7FAF094F7F8F0949C
:10321000C0E060E070E080E09FE37C1641F020E0D9
:1032200030E040E251E40E94923BCF5FF6CFA7012D
:1032300096010E94213B2B013C010E940B3C4B015B
:103240005C014AE00E949D137C01E00EF11ECC233C
:1032500099F1C501B4010E943A3C9B01AC01C30144
:10326000B2010E94203B4B015C018EE20E94920A57
:10327000E80EF91EC15000F120E030E040E251E4D8
:10328000C501B4010E94F13C2B013C010E940B3CA2
:103290004B01CB010E948314E80EF91EB40190E0AB
:1032A00080E00E943A3C9B01AC01C301B2010E9444
:1032B000203B4B015C01DECFC701CF911F910F91E5
:1032C000FF90EF90DF90CF90BF90AF909F908F9046
:1032D0007F906F905F904F9008950C949818CF93C3
:1032E000DF938091EB02882309F41CC180E79BE007
:1032F0000E94E71285E49BE00E94770A6AE070E092
:103300008091F8020E94E11382E49BE00E94E712A0
:1033100081E39BE00E94770A8091F9029091FA0282
:10332000CAE0D0E0BE010E94D83DCB010E948314C8
:103330008EE29BE00E94E7128091EB02882391F0DD
:103340008DE19BE00E94770A8091FB029091FC0244
:10335000BE010E94D83DCB010E9483148AE19BE00C
:103360000E94E71282E19BE00E94770A6091F202DC
:103370007091F30290E080E00E943A3C20E030E05F
:1033800040E251E40E94923B41E050E00E946D19FE
:103390008DE09BE00E94770A6091EC027091ED0253
:1033A00090E080E00E943A3C20E030E040E251E4CE
:1033B0000E94923B41E050E00E946D198AE09BE040
:1033C0000E94E7128091EB02882309F460C082E03A
:1033D0009BE00E94770A6091F4027091F50290E000
:1033E00080E00E943A3C20E030E040E251E40E945C
:1033F000923B41E050E00E946D198DEF9AE00E94EF
:10340000770A6091EE027091EF0290E080E00E94F6
:103410003A3C20E030E040E251E40E94923B41E03F
:1034200050E00E946D198AEF9AE00E94E71282EF45
:103430009AE00E94770A6091F6027091F70290E09C
:1034400080E00E943A3C20E030E040E251E40E94FB
:10345000923B41E050E00E946D198DEE9AE00E948F
:10346000770A6091F0027091F10290E080E00E9492
:103470003A3C20E030E040E251E40E94923B41E0DF
:1034800050E00E946D198AEE9AE00E94E71282EEE7
:103490009AE00E94770A6091FF027091000390E029
:1034A00080E00E943A3C20E030E040E251E40E949B
:1034B000923B41E050E00E946D198DED9AE00E9430
:1034C000770A6091FD027091FE0290E080E00E9418
:1034D0003A3C20E030E040E251E40E94923B41E07F
:1034E00050E00E946D198AED9AE00E94E71282ED89
:1034F0009AE00E94770A6091010370E090E080E01A
:103500000E943C3C20E030E040E251E40E94923BCB
:1035100041E050E00E946D198FEC9AE0DF91CF916D
:103520000C94E71286E59BE0E3CECF92DF92EF9218
:10353000FF928BE799E00E94770A6091890370916E
:103540008A0380918B0390918C0341E050E00E94AC
:103550006D1988E799E00E94770A8CE699E00E944D
:10356000770A60918E0370918F0390E080E00E9453
:103570003A3C20E030E040E251E40E94923B41E0DE
:1035800050E00E946D1989E699E00E94E71282E6F8
:1035900099E00E94770A60919A0370919B03809151
:1035A0009C0390919D0341E050E00E946D198DE5D0
:1035B00099E00E94770A6091920370919303809141
:1035C00094039091950342E050E00E946D1988E5C4
:1035D00099E00E94770AC0909603D0909703E090FC
:1035E0009803F090990320E030E0A901C701B601EB
:1035F0000E948D3B882309F469C042E050E0C70176
:10360000B6010E946D1984E599E00E94E71285E4F5
:1036100099E00E94770A60919E0370919F038091C8
:10362000A0039091A10341E050E00E946D1982E453
:1036300099E00E94E7128091C503811167C0C09094
:103640009E03D0909F03E090A003F090A10326E694
:1036500036E646E451E4C701B6010E94EC3C87FD22
:1036600038C081E399E00E94E71280917103909144
:103670007203A0917303B091740380319E40A10541
:10368000B10520F482E798E00E94E71284E698E012
:103690000E94770A609171037091720380917303A5
:1036A000909174030E943A3C20E030E040E752E4FD
:1036B0000E94923B41E050E00E946D198BE598E03A
:1036C000FF90EF90DF90CF900C94E7128CE499E09C
:1036D0009CCF23E333E343E451E4C701B6010E94E6
:1036E000EC3C87FD03C080E299E0BDCF20E030E0F4
:1036F00040E451E4C701B6010E94EC3C87FD03C0E1
:1037000083EE98E0B0CF85E998E0ADCF86E398E00E
:10371000D7CF0E94E3120E94E3120E9492130E94EC
:1037200059180E9492130E94951A0E94921388EFD2
:103730009BE00C94E712CF93DF93CDB7DEB72897C9
:103740000FB6F894DEBF0FBECDBF88E0E3E1F1E035
:10375000DE01119601900D928A95E1F768E0CE01A5
:1037600001960E94F4130E94891B28960FB6F894C4
:10377000DEBF0FBECDBFDF91CF910895CF93DF9312
:103780000E949818EC010E94E3128C0F9D1FDF919C
:10379000CF910895DF92EF92FF920F931F93CF93F3
:1037A000DF938DE39AE00E94E71207EA13E0C0E09E
:1037B00083E0D82E85E39AE00E94770A8C2F6D2D46
:1037C0000E94CA3D90E001960E94A91682E39AE009
:1037D0000E94770A7801D0E0F701619171917F0131
:1037E000072E000C880B990B0E943C3C20E030E037
:1037F00040E85CE30E94F13C41E050E00E946D191A
:10380000D23009F473C08FE29AE00E94770ADF5F3A
:10381000D33011F7CD5F0A5F1F4FC93059F684E2EC
:103820009AE00E94770A6091BD037091BE03072E53
:10383000000C880B990B0E943C3C20E030E040E8F3
:103840005CE30E94F13C41E050E00E946D198BE185
:103850009AE00E94770A6091BB037091BC03072E27
:10386000000C880B990B0E943C3C20E030E040E8C3
:103870005CE30E94F13C41E050E00E946D1982E15E
:103880009AE00E94770A6091B9037091BA03072EFB
:10389000000C880B990B0E943C3C20E030E040E893
:1038A0005CE30E94F13C41E050E00E94BE1B87E0D7
:1038B0009AE00E94770A6091BF037091C003072EBF
:1038C000000C880B990B0E943C3C20E030E040E863
:1038D0005CE30E94F13C41E050E0DF91CF911F9109
:1038E0000F91FF90EF90DF900C94BE1B0E94E312AB
:1038F0008ECF4F925F926F927F928F929F92AF92F4
:10390000BF92CF92DF92EF92FF920F931F93CF93CC
:10391000DF93CDB7DEB728970FB6F894DEBF0FBEA2
:10392000CDBFBC0188E0EBE1F1E0DE011196019032
:103930000D928A95E1F780913804882309F491C0AB
:1039400046E050E0CE0101960E94293A8D8190E038
:1039500090933504809334048E8190E090933704E3
:10396000809336048FEF8D838E838091F80390913E
:10397000F9030E94370DA091F603B091F70340912F
:103980002C0450912D0460912E0470912F041C92F0
:1039900011964D935D936D937C93149788E01596E3
:1039A0008C931597BE016F5F7F4FCD0106969D01E9
:1039B000225F3F4FFB014191BF01FC014193CF01C9
:1039C000E217F307B9F7CD010E94980E10E000E06E
:1039D00098E0592E442443940E94E00AF12C892B4C
:1039E00009F067C124E134E042E154E06EE074E0A4
:1039F0008091F6039091F7030E94DF0F40910E042F
:103A000050910F0460911004709111048091300462
:103A100090913104A0913204B0913304F12C4817F5
:103A200059076A077B0709F032C18091140480317D
:103A3000F8F4809115048F37D9F080E0909112044A
:103A40008917C8F5282F30E0F901EA50FC4F978D0F
:103A5000E091FA03F091FB03E20FF31F90838F5F75
:103A6000EDCF44E050E0CE0101960E94293A7DCF8F
:103A7000F12C80911404807F803109F008C10091FD
:103A80001404109115041027012710271F7080E0DF
:103A9000909112048917A0F4282F30E0F901EA5020
:103AA000FC4F978DE091FA03F091FB03E20FF31FB7
:103AB00090838F5FEDCFFF24F39410E000E0D9CF27
:103AC000E091F603F091F70380912C0490912D047E
:103AD000A0912E04B0912F04108281839283A3833E
:103AE000B4835582BF016A5F7F4F9F01225F3F4FC2
:103AF0008CE194E0DC014D91CD01DB014D93BD01E2
:103B00002A173B07B9F7CF010E94980E7801B6E05B
:103B1000EB1AF1088091F8039091F9030E94370D98
:103B200060901D04912C812CB12CA12C87E0C82E13
:103B3000D12C712C0E94E00A892B09F090C024E15D
:103B400034E042E154E06EE074E08091F60390913D
:103B5000F7030E94DF0F80911404807F803209F008
:103B60006DC0EFEF8E1A9E0A80911204E81AF108D8
:103B7000FFEFEF1AFF0A80E0909112048917B8F462
:103B800098EEC916D1048CF4873078F4282F30E0F1
:103B9000F901EA50FC4F978DE091FA03F091FB0395
:103BA000EC0DFD1DE20FF31F90838F5FE5CFC40185
:103BB000B3010E94EC3D892B49F51E141F0434F516
:103BC000E091F603F091F70380912C0490912D047D
:103BD000A0912E04B0912F04108281839283A3833D
:103BE000B4835582BF016A5F7F4F9F01225F3F4FC1
:103BF0008CE194E0DC014D91CD01DB014D93BD01E1
:103C00002A173B07B9F7CF010E94980EBFEFAB1AF6
:103C1000BB0A80913804882371F08091340490911C
:103C20003504A816B90638F080913604909137040F
:103C30008A159B0518F4E7E0CE0ED11C0E94E00A1D
:103C4000892B69F460E08091F8039091F9030E9458
:103C5000480D811104C01E141F040CF470CF60E0E5
:103C60008091F8039091F9030E94480D811104C0DE
:103C70001E141F040CF45ECF60E08091F803909155
:103C8000F9030E94480DF82EF4240E9434100E947B
:103C9000E00A892B71F460E08091F8039091F903B8
:103CA0000E94480D811105C0FF2009F49BCEFF241E
:103CB000F39460E08091F8039091F9030E94480D1D
:103CC000811105C0FF2009F487CEFF24F3941092E0
:103CD0003804FF20F1F0C801079667E070E00E9409
:103CE000D83DCB0128960FB6F894DEBF0FBECDBFEE
:103CF000DF91CF911F910F91FF90EF90DF90CF90C8
:103D0000BF90AF909F908F907F906F905F904F90FB
:103D100008950E94341090E080E0E4CFCF932FEE1E
:103D200037E040E050E067EE77E080E090E00E940E
:103D3000481189E292E10E94791CC0E0892BB9F117
:103D4000E091FA03F091FB0390E080E0DC01AE7FAC
:103D5000A955BC4F248135812327322723272D9352
:103D60003C93029632968E30910581F78091A7039D
:103D70009091A8039093BA038093B9038091A9030B
:103D80009091AA039093BC038093BB038091AB03F3
:103D90009091AC039093BE038093BD038091AD03DB
:103DA0009091AE039093C0038093BF03C1E085E27E
:103DB00092E10E94791C892BC9F0CC23B9F0E091E3
:103DC000FA03F091FB0390E080E0DC01AE7FA9559F
:103DD000BC4F248135812327322723272D933C9301
:103DE000029632968231910581F7C1E08C2FCF91F6
:103DF00008952FEE37E040E050E067EE77E080E096
:103E000090E00E94481181E292E10E94791C892B86
:103E100009F448C06091FA037091FB0348E050E058
:103E20008EE193E00E9466096091FA037091FB03B2
:103E300046E050E089E193E00E9466098091190311
:103E400090911A0384529A4F90931A038093190306
:103E50006091FA037091FB0344E050E085E293E047
:103E60000E946609809125039091260384529A4FFF
:103E70009093260380932503609146037091470336
:103E800080914803909149030E94043C20911E03B5
:103E900030911F03621B730B7093280360932703F9
:103EA00081E0089580E00895CF93DF9323E834E024
:103EB00040E050E06AE176E080E090E00E94481146
:103EC0008DE192E10E94791C892B59F18091EB02DE
:103ED000E091FA03F091FB038823C1F09481909361
:103EE0000C03DF011596C2E0D3E09F01235F3F4F33
:103EF0009D919993A217B307D9F7948590930A03DC
:103F0000958590930B03DF91CF91089585818093E0
:103F10000C03878180930A03818580930B0381E0E2
:103F2000F2CF80E0F0CF80910101909102018130C9
:103F3000910521F070F0049738F008950E948E1ECC
:103F4000882339F00C94CA1B0E94541F81110C94D1
:103F5000271708951F93CF93DF9300D0CDB7DEB717
:103F60002DEE37E040E050E065EE77E080E090E055
:103F70000E9448112DEE37E040E050E065EE77E01A
:103F800080E090E00E94481186EF90E00E94791C4A
:103F900010E0892B89F06091FA037091FB0343E0F4
:103FA00050E0CE0101960E94660989819A81909322
:103FB0001C0280931B0211E082EF90E00E94791CAA
:103FC000892B51F0112341F0E091FA03F091FB03AA
:103FD000838180931D0211E08EEE90E00E94791C97
:103FE000892B51F0112341F0E091FA03F091FB038A
:103FF000838180931E0211E08AEE90E00E94791C7A
:10400000892B69F0112359F0E091FA03F091FB0339
:10401000848190E09093200280931F0211E086EE4D
:1040200090E00E94791C892B51F0112341F0E0911E
:10403000FA03F091FB0383818093210211E082EE69
:1040400090E00E94791C892B99F0112389F06091EE
:10405000FA037091FB0343E050E0CE0101960E9409
:10406000660989819A81909323028093220211E04C
:104070008EED90E00E94791C892B51F0112341F0C4
:10408000E091FA03F091FB0383818093240211E015
:104090008AED90E00E94791C892B99F0112389F018
:1040A0006091FA037091FB0343E050E0CE0101966A
:1040B0000E94660989819A81909326028093250245
:1040C00011E086ED90E00E94791C892B99F0112374
:1040D00089F06091FA037091FB0343E050E0CE0158
:1040E00001960E94660989819A81909328028093A3
:1040F000270211E082ED90E00E94791C892B51F09B
:10410000112341F0E091FA03F091FB038381809346
:10411000290211E08EEC90E00E94791C892B99F124
:10412000112389F16091FA037091FB0344E050E0A0
:10413000CE0101960E946609E091FA03F091FB031B
:104140002381648170E090E080E0982F872F762FA4
:104150006627822B2581622B982F872F762F662743
:104160000E943A3C20E030E040E251E40E94923B61
:104170000E940B3C60932A0270932B0280932C02C6
:1041800090932D0211E08AEC90E00E94791C892B1B
:10419000D1F01123C1F06091FA037091FB0344E068
:1041A00050E0CE0101960E946609E091FA03F09179
:1041B000FB038381948198278927982790932F0266
:1041C00080932E0211E086EC90E00E94791C892BEE
:1041D000D1F01123C1F06091FA037091FB0344E028
:1041E00050E0CE0101960E946609E091FA03F09139
:1041F000FB03838194819827892798279093310224
:104200008093300211E08091050181110CC08AEF8A
:1042100090E0111106C08FEF90E00E94770A8CEFBA
:1042200090E00E94770A812F0F900F90DF91CF913D
:104230001F9108958FEE9FE00E94770A0E94AA1FA7
:10424000882309F410C185ED9FE00E94E71261E028
:104250008AE00E94040B0E94921384EB9FE00E946C
:10426000E71283EA9FE00E94770A60911B02709137
:104270001C02072E000C880B990B0E943C3C20E08E
:1042800030E040E05EE30E94F13C41E050E00E94FB
:104290006D198DE99FE00E94E7128CE89FE00E9473
:1042A000770A6091240270E090E080E00E943C3C3C
:1042B00020E030E04FE753E40E94923B20E030E002
:1042C00048EC52E40E94F13C41E050E00E946D193C
:1042D00089E89FE00E94E71288E79FE00E94770A42
:1042E0006091210270E090E080E00E943C3C20E080
:1042F00030E04FE753E40E94923B20E030E048EC8E
:1043000052E40E94F13C41E050E00E946D1983E7C5
:104310009FE00E94770A80911D028253990B0E94B0
:10432000A9168DE69FE00E94E7128CE59FE00E94AF
:10433000770A60911E0270E090E080E00E943C3CB1
:1043400020E030E040E251E40E94923B41E050E046
:104350000E946D1987E59FE00E94770A60911F0215
:104360007091200290E080E00E943A3C20E030E032
:1043700040EA50E40E94923B41E050E00E946D19F7
:1043800084E59FE00E94E7128FE49FE00E94E7121D
:104390008EE39FE00E94770A809125029091260289
:1043A0000E9483148BE39FE00E94E7128AE29FE061
:1043B0000E94770A80912202909123020E94831426
:1043C00087E29FE00E94E71286E19FE00E94770A61
:1043D00080912702909128020E94831481E19FE03E
:1043E0000E94770A8091290281113AC08DE09FE0F6
:1043F0000E94E71289EF9EE00E94770A60912A02EC
:1044000070912B0280912C0290912D020E943A3CD7
:1044100020E030EA4CE057E40E94923B43E050E059
:104420000E946D1986EF9EE00E94E71285EE9EE0E5
:104430000E94770A80912E0290912F020E94A91665
:104440008DED9EE00E94770A8091300290913102BA
:104450000E94A91687ED9EE00E94E7120C94921329
:104460008AE09FE0C5CF8091E0019091E101019643
:104470009093E1018093E0010E94E31288ED9FE0B8
:104480000C94E7120F931F93CF93DF9300D0CDB717
:10449000DEB723E834E040E050E06AE176E080E017
:1044A00090E00E94481100E0023009F461C103303D
:1044B00009F47FC123E834E040E050E06AE176E0AF
:1044C00080E090E0013009F4A7C00E94481184EB1D
:1044D00090E00E94791C892BD1F410E080910501B5
:1044E000811107C0112309F468C184EC90E00E9497
:1044F000770A0F5F112319F00430B1F611E0812F14
:104500000F900F90DF91CF911F910F9108956091BF
:10451000FA037091FB038091EB02FB01882309F4FD
:1045200041C080858093010349E050E0CE010196AF
:104530000E94660989819A81909300038093FF020B
:104540006091FA037091FB034BE050E0CE010196BD
:104550000E94660989819A819093F3028093F20206
:104560006091FA037091FB034DE050E0CE0101969B
:104570000E94660989819A819093F5028093F402E2
:104580006091FA037091FB034FE050E0CE01019679
:104590000E94660989819A819093F7028093F602BE
:1045A00011E09CCF86818093010349E050E0CE0169
:1045B00001960E94660989819A818E3FFFE19F07DB
:1045C00009F1909300038093FF026091FA037091C8
:1045D000FB034BE050E0CE0101960E946609898101
:1045E0009A818E3F2FE1920791F09093F30280938E
:1045F000F2021092F5021092F4021092F702109259
:10460000F602CECF109200031092FF02DECF10927E
:10461000F3021092F202EDCF0E94481188EB90E075
:104620000E94791C892B09F458CF6091FA0370918C
:10463000FB038091EB02882309F45DC044E050E065
:10464000CE0101960E94660989819A819093FE02AB
:104650008093FD026091FA037091FB0346E050E005
:10466000CE0101960E94660989819A819093ED029C
:104670008093EC026091FA037091FB0348E050E0F4
:10468000CE0101960E94660989819A819093EF027A
:104690008093EE026091FA037091FB034AE050E0D0
:1046A000CE0101960E94660989819A819093F10258
:1046B0008093F0026091FA037091FB0340E150E0B7
:1046C000CE0101960E94660989819A819093FC022D
:1046D0008093FB026091FA037091FB0342E150E08A
:1046E000CE0101960E94660989819A819093FA020F
:1046F0008093F90255CF46E050E0CE0101960E942A
:10470000660989819A818F3FE7E09E0739F190938E
:10471000ED028093EC021092EF021092EE021092E2
:10472000F1021092F0026091FA037091FB0342E1F2
:1047300050E0CE0101960E94660989819A818F3FDF
:10474000F7E09F0781F09093FE028093FD02609155
:10475000FA037091FB034EE050E0C2CF1092ED02DD
:104760001092EC02D8CF1092FE021092FD02EFCF11
:1047700023E834E040E050E06AE176E080E090E059
:104780000E9448118CEB90E00E94791C892B09F45F
:10479000A4CE1091EB02E091FA03F091FB031123F8
:1047A00021F080858093F80299CE87818093F8026A
:1047B000F7CE0E94541F182F91CE82EC90E00E94F9
:1047C000770A80EC90E00E94770A6AE070E0802F20
:1047D0000E94E1138ECE80910101909102018130FF
:1047E000910521F088F0049738F008950E94F91E91
:1047F000882351F00C9422160E944222882321F033
:104800000E94E3120C946F190895FF920F931F9367
:10481000CF93DF938AEC9EE00E94770A0E944222A7
:10482000882309F476C080EB9EE00E94E71261E0E5
:104830008AE00E94040B0E9492130E946F190E944A
:1048400092130E9427170E9492138091EB028823F3
:1048500009F473C087EA9EE00E94770A8DE093E036
:104860000E94E3168EE99EE00E94770A23E834E076
:1048700040E050E06AE176E080E090E00E9448117C
:104880008AE99EE00E94791C009721F127E0289F89
:104890008001299F100D1124C4E0D0E083E0F82EA0
:1048A000E091FA03F091FB03EC0FF11D80810E946F
:1048B000920AE091FA03F091FB03CF5F8C2F90E016
:1048C000E80FF91F20812F3019F08017910748F069
:1048D0000E94E312DF91CF911F910F91FF900C94F2
:1048E0009213C530E8F22433D9F681818533C1F6BD
:1048F00082818133A9F687E99EE00E94770ADF5F13
:104900008D2F6F2D0E94BE3D9111CACF0E94E312E0
:10491000C7CF8091E0019091E10101969093E10170
:104920008093E0010E94E31283EB9EE0DF91CF9140
:104930001F910F91FF900C94E712DF91CF911F917F
:104940000F91FF900895CF93DF93EC018DE5888759
:104950001F828AEB90E00E94E437888399831E824D
:104960001A821B821C821D82FC0180E0119211922E
:104970008F5F8D35D9F7DF91CF910895CF93DF9376
:10498000CDB7DEB76E970FB6F894DEBF0FBECDBFC2
:1049900069E970E1CE0101960E94323A81EF91E01F
:1049A0000E94D6126E960FB6F894DEBF0FBECDBF32
:1049B000DF91CF910895CF92DF92EF92FF920F9304
:1049C0001F93CF93DF936C018B0186E090E00E94F0
:1049D000E437EC019093EF018093EE01F601019032
:1049E0000020E9F7CF018C199D090E94E4377C0172
:1049F000B6010E940F3EF60101900020E9F73197C1
:104A0000EC19FD09EE0DFF1D1082F982E8821B836F
:104A10000A838091EC019091ED019D838C83D0936A
:104A2000ED01C093EC01DF91CF911F910F91FF90A9
:104A3000EF90DF90CF900895FC012081222329F090
:104A4000BC0181EF91E00C940F3E69E970E181EFC8
:104A500091E00C94323A8091F503811104C082E513
:104A600091E00C941C2582E691E0FBCF10920201AC
:104A7000109201010C942B251F93CF93DF93EC012F
:104A8000162F0E94683A181739F0612FCE01DF9176
:104A9000CF911F910C94703ADF91CF911F9108959F
:104AA0000F931F93CF938130F9F4FB01C82F02813C
:104AB000138169E671E0C8010E94063E892B11F45A
:104AC000C09309016CE671E0C8010E94063E892B83
:104AD00011F4109209016091090184E090E0CF91F6
:104AE0001F910F910C943C25CF911F910F91089528
:104AF0000F931F93CF938130F9F4FB01C82F0281EC
:104B0000138169E671E0C8010E94063E892B11F409
:104B1000C09308016CE671E0C8010E94063E892B33
:104B200011F4109208016091080181E090E0CF91AA
:104B30001F910F910C943C25CF911F910F910895D7
:104B40000C94683A811106C090E080E00E94A02594
:104B50008535E9F084E092E10E94E71261E081E0AE
:104B600090E00E943C2560E082E090E00E943C25BD
:104B70006EE183E090E00E943C2560E084E090E0FC
:104B80000E943C2565E590E080E00E943C2581E0A4
:104B900090E00E94A02591E0811101C090E09093E7
:104BA000080182E090E00E94A02591E0811101C0FF
:104BB00090E09093050183E090E00E94A02590E0B2
:104BC000909304018093030184E090E00E94A0256B
:104BD00091E0811101C090E090930901089581E076
:104BE0000C94A225CF93DF93EB01833008F45DC0D2
:104BF0004AE050E070E060E08C819D810E940939BC
:104C0000709304016093030169E671E08A819B81DE
:104C10000E94063E892B89F581E080930501409131
:104C200003015091040128EE33E0429FC001439FED
:104C3000900D529F900D1124B0E0A0E08093D70218
:104C40009093D802A093D902B093DA022FB7F894C8
:104C50008091CF029091D002A091D102B091D20266
:104C60002FBF8093D3029093D402A093D502B09328
:104C7000D60210920701109206016CE671E08A815B
:104C80009B810E94063E892B11F4109205016091D0
:104C9000050182E090E00E943C256091030183E0E1
:104CA00090E0DF91CF910C943C25823009F4ACCF99
:104CB000813021F4DF91CF910C94EF16DF91CF91E9
:104CC00008952F923F924F925F926F927F928F92B0
:104CD0009F92AF92BF92CF92DF92EF92FF920F938B
:104CE0001F93CF93DF9300D000D0CDB7DEB7F82E5F
:104CF000E92E6B832FEE37E040E050E067EE77E07F
:104D000080E090E00E944811FC822F2C3E2C10E0A5
:104D100001E07AE0E72ED101ED911D01EC3020F5A4
:104D2000F0E0EB56F94D0C94003EA1266C277A2852
:104D3000C828B426132917295D2999299C29F12906
:104D4000262A2FEE37E040E050E067EE77E080E083
:104D500090E00E944811009338048EE690E00E9493
:104D6000791C892BA9F410E0809105018111C1C340
:104D7000112309F497C382EB90E00E94770A11E0B7
:104D8000822DEC818E1BFB818F1708F4C4CF99C351
:104D9000109203041092FE031092FF03109200047D
:104DA0001092010410920204A090FA03B090FB0349
:104DB0006501BAEBCB0ED11CF50164818581762F9C
:104DC000682F8CEF93E00E94FB0CF2E0AF0EB11C59
:104DD000CA14DB0489F761E573E08CEF93E00E946D
:104DE000BE0C909342038093410363E573E08CEF24
:104DF00093E00E94810C9093500380934F03F090B6
:104E00000304412C512C3201FF20D1F06091FE03AC
:104E10007091FF0380910004909101040E943C3C3A
:104E20004B015C016F2D70E090E080E00E943A3C05
:104E30009B01AC01C501B4010E94923B2B013C01D6
:104E40004092460350924703609248037092490390
:104E500060E070E0CB01FF20A9F1D12CC12C812CA6
:104E6000912C5401CF1400F5B6018CEF93E00E9411
:104E7000BA0BBC0190E080E00E943A3C9B01AC017F
:104E8000C301B2010E94203B9B01AC010E94F13C96
:104E90009B01AC01C501B4010E94213B4B015C01A7
:104EA0008FEFC81AD80ADECF6F2D70E090E080E057
:104EB0000E943A3C9B01AC01C501B4010E94923BA7
:104EC0000E94643D6093550370935603809357038B
:104ED0009093580311E048CF2FEE37E040E050E0C8
:104EE00067EE77E080E090E00E944811009338047C
:104EF00084E790E00E94791C892B09F434CF10924A
:104F00000C041092070410920804109209041092E5
:104F10000A0410920B04A090FA03B090FB03650101
:104F20009AEBC90ED11CD50159966C9159975A9696
:104F30008C91762F682F85E094E00E94FB0CB2E004
:104F4000AB0EB11CAC14BD0471F769E673E085E0EB
:104F500094E00E94BE0C90935A03809359036BE631
:104F600073E085E094E00E94810C90936803809345
:104F70006703F0900C0460E070E0CB01FF20C1F00B
:104F800060910704709108048091090490910A04CB
:104F90000E943C3C4B015C016F2D70E090E080E092
:104FA0000E943A3C9B01AC01C501B4010E94923BB6
:104FB00060935E0370935F0380936003909361033B
:104FC000E091FA03F091FB032581868190E0B0E047
:104FD000A0E0BA2FA92F982F8827A22B2781822BF8
:104FE0008093710390937203A0937303B09374033F
:104FF0002185828590E0B0E0A0E0BA2FA92F982FFC
:105000008827A22B2385822B8093750390937603A8
:10501000A0937703B0937803848595859827892793
:10502000982790937A0380937903868580938D03E4
:1050300045E150E0BF0189E293E00E94660960917A
:10504000FA037091FB0347E150E08EE293E00E9487
:1050500066096091FA037091FB0341E150E085E33A
:1050600093E00E9466096091FA037091FB0340EEA1
:1050700050E08FE393E00E9466096091FA0370911B
:10508000FB0342EE50E0CE0101960E946609698161
:105090007A8190E080E00E943A3C20E03FEF4FE7C9
:1050A00057E40E94923B60933703709338038093D8
:1050B000390390933A036091FA037091FB034EED2C
:1050C00050E0CE0101960E94660969817A8190E0E4
:1050D00080E00E943A3C20E03FEF4FE757E40E9417
:1050E000923B60933B0370933C0380933D0390930A
:1050F0003E03F0CE2FEE37E040E050E067EE77E081
:1051000080E090E00E9448118AE790E00E94791CBC
:10511000892B09F428CE6091FA037091FB0343E0D8
:1051200050E0CE0101960E94660969817A817093F0
:10513000910360939003072E000C880B990B0E943B
:105140003C3C20E030E040E05DE30E94F13C6093B5
:10515000920370939303809394039093950320910B
:105160009A0330919B0340919C0350919D030E94B0
:10517000F13C20E030E04AE754E40E94923B609327
:105180009603709397038093980390939903A2CE0C
:105190002FEE37E040E050E067EE77E080E090E00F
:1051A0000E94481186E890E00E94791C892B81F0CA
:1051B0006091FA037091FB0343E050E0CE01019649
:1051C0000E94660989819A8190936E0380936D0392
:1051D00082E890E00E94791C892B81F06091FA03AB
:1051E0007091FB0343E050E0CE0101960E946609F6
:1051F00089819A819093700380936F038EE790E08A
:105200000E94791C892B09F4AECDE091FA03F0914C
:10521000FB0383818093CE0384818093CF038581B8
:105220008093D00357CE0E94F91E182F9DCD2FEEEC
:1052300037E040E050E067EE77E080E090E00E94E9
:1052400048118EE890E00E94791C10E0892B71F0E3
:10525000E091FA03F091FB03848180937D038581C3
:1052600080937C03868180937B0311E08AE890E041
:105270000E94791C892B09F477CD112309F473CD91
:10528000E091FA03F091FB038581805194819E9D0A
:10529000800D1124809380038781805196819E9D8B
:1052A000800D112480937F039085818580519E9D80
:1052B000800D112480937E030DCE2FEE37E040E069
:1052C00050E067EE77E080E090E00E94481186E9C8
:1052D00090E00E94791C10E0892B71F0E091FA03B4
:1052E000F091FB0383818093840384818093850301
:1052F00085818093860311E082E990E00E94791C09
:10530000892B09F431CD112309F42DCDA091FA0395
:10531000B091FB03EC91E250EA0FFB2FF11D80816D
:1053200080938103818180938203828180938303B0
:10533000D1CD0E948E1E79CF2FEE37E040E050E0B5
:1053400067EE77E080E090E00E94481182EA90E00A
:105350000E94791C892BC1F0E091FA03F091FB03C4
:105360002481858190E0B0E0A0E0BA2FA92F982F8A
:105370008827A22B2681822B8093C6039093C70394
:10538000A093C803B093C9038EE990E00E94791CF2
:10539000892BC1F0E091FA03F091FB032481858110
:1053A00090E0B0E0A0E0BA2FA92F982F8827A22B79
:1053B0002681822B8093CA039093CB03A093CC03C6
:1053C000B093CD038AE990E00E94791C892B09F4FF
:1053D000CACCE091FA03F091FB0383818093C5036B
:1053E00079CD2FEE37E040E050E067EE77E080E0E7
:1053F00090E00E94481186EA90E00E94791C892B77
:1054000009F4B1CC8091C503823009F463CD609179
:10541000FA037091FB034CE050E0CE0101960E942C
:10542000660969817A8190E080E00E943A3C20E040
:1054300030E040E85CE30E94F13C60939A03709393
:105440009B0380939C0390939D0344CD2FEE37E004
:1054500040E050E067EE77E080E090E00E94481185
:105460008AEA90E00E94791C892B09F47CCC609137
:10547000FA037091FB0344E050E0CE0101960E94D4
:10548000660989819A819093C2038093C103E09158
:10549000FA03F091FB03868190E09093C40380931C
:1054A000C30318CD80EB90E00E94770A8EEA90E06B
:1054B0000E94770AF10131976AE070E080810E94D2
:1054C000E113812F0F900F900F900F90DF91CF91EC
:1054D0001F910F91FF90EF90DF90CF90BF90AF9012
:1054E0009F908F907F906F905F904F903F902F9004
:1054F0000895111144CCE5CFEF92FF920F931F93C3
:10550000CF93DF93CDB7DEB72C970FB6F894DEBFFD
:105510000FBECDBF198281E08A8382E08B8383E056
:105520008C8384E08D8385E08E8386E08F8387E0A3
:1055300088878AE89EE00E94770A68E0CE0101969B
:105540000E94F4138CEF93E00E94A32485E094E082
:105550000E94A324FE01319680E081938F5F8C30FE
:10556000E1F76CE0CE0101960E946126882309F4E0
:1055700000C380E79EE00E94E71261E08AE00E949B
:10558000040B0E9492130E9459180E94921380E00B
:105590000E9485170E9492130E94951A0E949213EE
:1055A0000E9422160E94921388E99CE00E94770ACA
:1055B00080913F03909140030E94831480E99CE016
:1055C0000E94E71287E79CE00E94770A6091370308
:1055D000709138038091390390913A0343E050E091
:1055E0000E94BE1B8EE59CE00E94770A60913B03FF
:1055F00070913C0380913D0390913E0343E050E065
:105600000E94BE1B83E59CE00E94770A80912E03D6
:1056100090912F030E9483148AE49CE00E94770AF1
:1056200060912E0370912F0390E080E00E943A3C3D
:1056300020E030E044EB53E40E94923B41E050E034
:105640000E946D1986E49CE00E94E7128BE39CE0C7
:105650000E94770A8091290390912A030E94831463
:1056600082E39CE00E94770A6091290370912A03EB
:1056700090E080E00E943A3C20E030E044EB53E4CC
:105680000E94923B41E050E00E946D198EE29CE046
:105690000E94E71283E29CE00E94770A8091350322
:1056A000909136030E9483148AE19CE00E94770A5D
:1056B000609135037091360390E080E00E943A3C9F
:1056C00020E030E044EB53E40E94923B41E050E0A4
:1056D0000E946D1986E19CE00E94E7120E949213DD
:1056E00089E29DE00E94770A8091C503823009F02B
:1056F00025C280E29DE00E94770A80E19DE00E9441
:10570000770A609175037091760380917703909189
:1057100078034AE00E949D138DE09DE00E94E7120D
:1057200087EE9CE00E94770A6091C6037091C703E0
:105730008091C8039091C9030E947F1686ED9CE07A
:105740000E94770A6091CA037091CB038091CC03C9
:105750009091CD030E947F1685EC9CE00E94770A11
:105760008091C1039091C2030E9483148DEB9CE051
:105770000E94770A8091C3039091C403892B09F09A
:10578000F5C18AEB9CE00E94E7120E9492130E94EE
:10579000CA1B0E94921383EF9DE00E94E71210E063
:1057A00000E00930110524F481EF9DE00E94770AA2
:1057B0000F5F1F4FC8010E94A9168FEE9DE00E9447
:1057C000770A780181E0E81AF108B7018CEF93E0DD
:1057D0000E94BA0B2091270330912803821B930B60
:1057E0000E9483148DEE9DE00E94770AB70185E048
:1057F00094E00E94BA0B0E9483140E94E3120D35BC
:10580000110579F60E94921381ED9DE00E94E71246
:105810000E94921386EC9DE00E94770A6091270314
:1058200070912803072E000C880B990B0E943C3CBA
:105830009B01AC016091460370914703809148033E
:10584000909149030E94203B50E040E00E946D1976
:1058500082EC9DE00E94770A8BEB9DE00E94770A24
:1058600080914F0390915003209141033091420366
:10587000821B930B0E94831487EB9DE00E94770AA2
:1058800081EB9DE00E94770A609155037091560369
:10589000809157039091580342E050E00E946D19A7
:1058A0008DEA9DE00E94E71282EA9DE00E94770A5D
:1058B0008091410390914203209127033091280366
:1058C000821B930B0E9483148AE99DE00E94770A51
:1058D000809151039091520301960E94D7168FE850
:1058E0009DE00E94770A80914F0390915003209190
:1058F000270330912803821B930B0E94831487E8AF
:105900009DE00E94770A8091530390915403019681
:105910000E94D7160E9492138CE79DE00E94770A9E
:1059200060915E0370915F038091600390916103C9
:1059300050E040E00E946D1983E79DE00E94770AE5
:1059400020E030E044EB53E460915E0370915F032C
:1059500080916003909161030E94923B41E050E08E
:105960000E946D198FE69DE00E94E71284E69DE09B
:105970000E94770A8091590390915A030E948314E0
:105980008BE59DE00E94770A6091590370915A035C
:1059900090E080E00E943A3C20E030E044EB53E4A9
:1059A0000E94923B41E050E00E946D1983E59DE02A
:1059B0000E94770A8091690390916A0301960E9480
:1059C000D71688E49DE00E94770A80916703909142
:1059D00068030E9483148FE39DE00E94770A609120
:1059E00067037091680390E080E00E943A3C20E0F9
:1059F00030E044EB53E40E94923B41E050E00E94CF
:105A00006D1987E39DE00E94770A80916B03909166
:105A10006C0301960E94D7160E9492130E94CD0B30
:105A20000E9489140E94921380910901882309F42D
:105A30006CC087E49EE00E94E7128FE29EE00E9425
:105A4000770A60916D0370916E03072E000C880B2E
:105A5000990B0E943C3C20E030E044EB53E40E9470
:105A6000923B41E050E00E946D198BE29EE00E9463
:105A7000E7128EE19EE00E94770A60916F037091B9
:105A80007003072E000C880B990B0E943C3C20E011
:105A900030E04AE754E40E94923B43E050E00E9429
:105AA0006D198BE19EE00E94E71287E09EE00E9464
:105AB000770A8091CE038A3020F485E09EE00E9430
:105AC000770A60E170E08091CE030E94E11380913B
:105AD000CF038A3020F483E09EE00E94770A60E1E1
